:2000000010C6FF1F95020000CD020000CF020000D1020000D3020000D50200000000000036
:20002000000000000000000000000000D7020000D902000000000000DB020000DD02000050
:20004000DD150000F115000005160000191600002D160000411600005516000069160000DA
:200060007D16000091160000A5160000B9160000CD160000E1160000F516000009170000B7
:200080001D1700003117000045170000591700006D1700008117000095170000A917000090
:2000A000BD170000D1170000E5170000F91700000D1800002118000035180000491800006C
:2000C0005D180000751800008D180000A5180000BD180000D5180000ED18000005190000D7
:2000E0001D190000351900004D190000651900007D19000095190000AD190000C5190000B0
:20010000DD190000F51900000D1A0000251A00003D1A0000551A00006D1A0000851A000089
:200120009D1A0000B51A0000CD1A0000E51A0000FD1A0000151B00002D1B0000451B000064
:200140005D1B0000751B00008D1B0000A51B0000BD1B0000D51B0000ED1B0000051C00003E
:200160001D1C0000351C00004D1C0000651C00007D1C0000951C0000AD1C0000C51C000017
:20018000DD1C0000F51C00000D1D0000251D00003D1D0000551D00006D1D0000851D0000F1
:2001A0009D1D0000B51D0000CD1D0000E51D0000FD1D0000151E00002D1E0000451E0000CC
:2001C0005D1E0000751E00008D1E0000A51E0000BD1E0000D51E0000ED1E0000051F0000A6
:2001E0001D1F0000351F00004D1F0000651F00007D1F0000951F0000AD1F0000C51F00007F
:20020000DD1F0000F51F00000D200000252000003D200000552000006D2000008520000058
:200220009D200000B5200000CD200000E5200000FD200000152100002D2100004521000033
:20024000DF020000DF020000DF020000DF020000DF020000DF020000DF020000DF02000096
:20026000DF020000DF020000DF020000DF020000DF020000DF020000DF020000DF02000076
:20028000DFF80CD000F04AF8004800477D2A000010C6FF1F12484FF01F01016011484FF09D
:2002A0007701016010484FF0770101600F484FF4885101600B484FF0760101600A484FF026
:2002C000760101600A4880470A480047FEE7FEE7FEE7FEE7FEE7FEE7FEE7FEE7FEE7FEE7A2
:2002E00010080540040805400C08054000080540592A00008102000040EA01039B0703D001
:2003000009E008C9121F08C0042AFAD203E011F8013B00F8013B521EF9D270471CB50948C0
:200320000090094801900546009C06E0E06840F0010394E8070098471034AC42F6D3FFF7AF
:20034000A3FF0000D42A0000E42A000081B08DF8030044F23C00C4F2050000789DF80310E9
:200360000840C0B2002818BF012001B07047000080B582B00190019820B9FFE76FF002008A
:2003800000901CE044F20011C4F205010868019A1279D20962F3C710086001984068086020
:2003A0000198007828B9FFE7012000F087F8009004E0002000F082F80090FFE7FFE70098E3
:2003C00002B080BD80B582B0019000910198009902F044F902F0A8FA02B080BD80B582B05A
:2003E0008DF807009DF8070002F0B4F902F09CFA02B080BD80B502F029FA02F027F880BD27
:2004000072FFDFFFFFFEFFFFFFFFFFFFFFFFFFFFFFFFFFFFFFFFFFFFFFFFFFFFFFFFFFFFAA
:2004200080B582B08DF80700002000909DF8070098BBFFE744F22600C4F20500007840076E
:2004400020B9FFE76FF00500009025E044F20010C4F205000068C1B20120B0EBD11F13D178
:20046000FFE744F22A00C4F20500007820B9FFE76FF00500009006E044F23601C4F2050141
:2004800001200870FFE706E044F23601C4F2050101200870FFE7FFE70CE044F23601C4F25A
:2004A00005010020087001204FF4805100F08EF80090FFE7009802B080BD000080B582B08F
:2004C0008DF80700002000909DF80700B0B9FFE744F22600C4F20500007800F00700052842
:2004E00004D1FFE76FF00500009006E044F22A01C4F2050101200870FFE729E044F200107C
:20050000C4F205000068C1B20020B0EBD11F07D1FFE708204FF4805100F058F8009006E0EA
:2005200001204FF4805100F051F80090FFE7009868B9FFE744F22A01C4F205010020087083
:2005400020204FF4805100F041F80090FFE7FFE7009802B080BD000082B0019000200090C8
:20056000019820B9FFE76FF0020000902AE00199002048600199087900F07F000871019929
:20058000087900F0E00008710199B1F8050000F47E401330A1F80500019AD179012060F35D
:2005A0001F11D171019AD17901F0F0010131D171019AB2F8051060F31F31A2F80510019948
:2005C0000870FFE7009802B07047000080B584B08DF80F000291002001906FF00700009085
:2005E000FFE70198029988420ED8FFE79DF80F00FFF7ACFE012803D1FFE70020009003E091
:20060000019801300190ECE7009804B080BD000083B0029048F20400C1F6FF70006844F25C
:200620002001C4F205010968C1F30261C84048F67F51C0F25B01084449F68171C1F25E6142
:20064000A0FB0110C00C0090FFE70298411E029150B1FFE700980190FFE70198411E0191A0
:2006600008B1FFE7F9E7F0E703B0704781B08DF803009DF8030048F24011C4F2202108607F
:2006800001B0704781B08DF803009DF8030048F26011C4F22021086001B0704781B000906E
:2006A000009840F21441C4F20101086001B0704781B08DF803009DF8030048F28011C4F2C1
:2006C0002021086001B0704781B00090009840F21041C4F201010968009A1140401AB0FA15
:2006E00080F0400901B0704780B58CB00B900A91099200200890099989080591099901F083
:20070000030104910A9903910B9902918DF81B0040F23F10FFF7C2FF40F20841C4F20101C7
:2007200008680022C0F201121040079008684FF6FF72CFF6FE621040086040F20C41C4F243
:2007400001010868012262F306100860FFE70599481E05900020009031B1FFE70898B0FAF0
:2007600080F040090090FFE70098C00710B3FFE70398011D0391006802990A1D02920860CF
:200780009DF81B0048F20401C1F6FF71096844F22002C4F205021268C2F30262D14041F2E6
:2007A0005972CDF2B712A1FB0221890B00F006FA0890CCE7049870B3FFE7089858BBFFE71A
:2007C0000398006801900498C1004FF0FF3000FA01F1019808430190019802990A1D02926A
:2007E00008609DF81B0048F20401C1F6FF71096844F22002C4F205021268C2F30262D14051
:2008000041F25972CDF2B712A1FB0221890B00F0D5F90890FFE740F20C41C4F2010108681C
:2008200020F07000086040F20841C4F2010108684FF6FF72CFF6FE621040079A0023C0F28C
:2008400001131A401044086008980CB080BD000040F20041C4F2010100200860704700006B
:2008600040F20041C4F2010140F22310086043F2102008607047000080B588B00790069161
:2008800005926FF00200049007980390059802904FF480700190069888B3FFE7019848F215
:2008A0000401C1F6FF71096844F22002C4F205021268C2F30262D14041F25972CDF2B7125C
:2008C000A1FB0221890B00F0ABF998B9FFE7FFE7029860B1FFE70398411C039100780699E0
:2008E0004A1C06920870029801380290F0E70020049003E06FF004000490FFE7FFE7049850
:2009000008B080BD80B586B005900491039200200290012001F022FCFFE74FF48070FFF7C7
:20092000D3FE012801D0FFE7F7E701200190FFF7BFFE05980499039AFFF79EFF02900020A7
:20094000FFF7B6FE019801F047FC029806B080BD80B588B006900591012001F0FFFBFFE708
:200960004FF48070FFF7B0FE012801D0FFE7F7E70120FFF79DFE0698049000200390FFE765
:2009800003980599884213D2FFE7049800F07EF80290029818B1FFE70298079012E00498ED
:2009A00000F500500490FFE7039801300390E7E700200190FFF77CFE012001F00DFC019876
:2009C0000790FFE7079808B080BD000080B58AB009900891079200200690012001F0BEFB4B
:2009E000FFE74FF48070FFF76FFE012801D0FFE7F7E70120FFF75CFE00200590FFE7059814
:200A00000799884238D2FFE709986FF35F3004900498C0F50050039007980599401A0399EF
:200A2000884205D2FFE707980599401A019002E003980190FFE7019802900298B0F5005F4A
:200A400004D9FFE74FF40050009002E002980090FFE70098029009980899059A1144029AC2
:200A6000FFF742FE069002990598084405900299099808440990C2E70020FFF719FE012079
:200A800001F0AAFB06980AB080BD000080B588B0079040F23F10FFF701FE40F20841C4F280
:200AA0000101039108680022C0F2011202921040059008684FF6FF72CFF6FE6201921040A2
:200AC000086000208DF8130040F20C42C4F2010200921168042363F30611116007990860A5
:200AE0009DF8130048F20401C1F6FF71096844F22002C4F205021268C2F30262D14048F284
:200B00001F52C5F2EB12A1FB0221090900F056F8DDF800C0019A029B03990690DCF80000CE
:200B200020F07000CCF8000008681040059A1A4010440860069808B080BD000083B00190A5
:200B40000020009040F20841C4F201010868019A120962F307100860FFE7019840F20841BE
:200B6000C4F20101096801F0F001884220D0FFE7009801300090009848F20401C1F6FF7173
:200B8000096844F22002C4F205021268C2F30262D14041F25972CDF2B712A1FB0221B0EB4B
:200BA000913F04D9FFE76FF00700029003E0D4E700200290FFE7029803B0704780B584B007
:200BC0008DF80F000291002001909DF80F104FF480708840029900F023F8083020B9FFE7F1
:200BE0006FF004000190FFE70198A8B9FFE79DF80F1010208840FFF767FD012807D1FFE74E
:200C00009DF80F1010208840FFF748FD03E04FF0FF300190FFE7FFE7019804B080BD0000B5
:200C200080B584B003900291002001900090FFE70398FFF749FD01280DD0FFE70198013071
:200C4000019001980299884204D9FFE76FF00700009000E0ECE7009804B080BD82B001904D
:200C60008DF803109DF80300012809D1FFE7019A48F20401C4F2040108689043086008E033
:200C8000019A48F20401C4F20401086810430860FFE702B07047000080B586B00590002025
:200CA00000908DF81000D82003900598000402909DF80B008DF80D00BDF80A008DF80E00CD
:200CC0000298000A8DF80F0002988DF8100000F031FA00984FF40071019100F0DBFA03A844
:200CE000052100F00FF90098019900F027FB00F08FF906B080BD000080B584B00390029198
:200D000003980190FFE701980399029A114488420AD2FFE70198FFF7BFFF01F093FCFFE75C
:200D2000019801300190EEE704B080BD80B584B0002001904FF40071029100F0ABFAB720C5
:200D40008DF80F000DF10F00012100F0DBF80198029900F0F3FA04B080BD000080B588B09E
:200D6000079006910592002001904FF40071029100F090FA0B208DF80E009DF81F008DF845
:200D80000F00BDF81E008DF810000798000A8DF8110007988DF81200FF208DF81300069A10
:200DA000059B0DF10E00062100F0DAF80198029900F0C4FA08B080BD80B598B00DF14E00FE
:200DC000009000F0D1FA009A2020ADF85400002004904FF48051019100F0DCF9009A0498A0
:200DE0004FF40061029100F0D5F9009A04984FF48061039100F0CEF9009A04980221ADF85B
:200E0000501001210691ADF84E104FF4007100F0C1F9019904982B2200F052FA0299049862
:200E2000282200F04DFA03990498292200F048FA08A8059001F07AFB06994FF48030FFF749
:200E40000DFF4CF20000C4F20100079001F0ECFA039B049A05990798089209924FF0080C22
:200E6000CDF828C00B920C920D920E920F93109201F0F4FA0699079801F0BEFA18B080BD3C
:200E800085B0049003910292019300200090FFE70498406903990840029988420BD0FFE7E8
:200EA000019820B9FFE76FF00700009003E0019801380190ECE7009805B0704780B584B05E
:200EC00000F050F9002001904FF40071029100F0E1F911208DF80F000DF10F000121009192
:200EE00000F010F800994C208DF80E000DF10E0000F008F80198029900F020FA00F088F8B8
:200F000004B080BD80B586B00590049100200390FFE70398049988421FD2FFE74CF200009B
:200F2000C4F2010002902022002301931146FFF7A7FF02980599039A895C01F01FFB019B1B
:200F4000029880221146FFF79BFF029801F0E8FAFFE7039801300390DBE706B080BD000007
:200F600080B58AB0099008910792069300200590FFE70598089988421FD2FFE74CF20000E6
:200F8000C4F2010003902022002302931146FFF777FF03980999059A895C01F0EFFA029B12
:200FA000039880221146FFF76BFF039801F0B8FAFFE7059801300590DBE700200490FFE75A
:200FC00004980699884220D2FFE74CF20000C4F2010001902022002300931146FFF750FF1A
:200FE0000198FF2101F0CAFA009B019880221146FFF746FF019801F093FA0799049A8854EA
:20100000FFE7049801300490DAE70AB080BD000080B584B000208DF80F00FFE7002001901D
:201020004FF40071029100F035F905208DF80D00FF208DF80E000DF10D0002210DF10F02A5
:201040000123FFF78DFF0198029900F077F9FFE79DF80F00C0070028E0D1FFE704B080BD55
:2010600080B58EB00D900C910B9200200A90FFE70A980B9988425BD2FFE79DF83400099001
:201080000998C0F5807008900B980A99401A0899884205D2FFE70B980A99401A049002E094
:2010A00008980490FFE7049807900798B0F5807F04D9FFE74FF48070039002E00798039003
:2010C000FFE70398079000F035F8002001904FF40071029100F0DEF802208DF817009DF8CA
:2010E00037008DF81800BDF836008DF819000D98000A8DF81A000D988DF81B000DF11700EB
:201100000521FFF7FFFE0C980A9908440799FFF7F9FE0198029900F011F9FFF779FF07995A
:201120000A9808440A9007990D9808440D909FE70EB080BD80B584B0002001904FF40071AA
:20114000029100F0A7F806208DF80F000DF10F000121FFF7D7FE0198029900F0EFF804B0FA
:2011600080BD000080B584B0002001904FF40071029100F08FF850208DF80F000DF10F0049
:201180000121FFF7BFFE0198029900F0D7F804B080BD000087B08DF81B00ADF8181005925B
:2011A00000200290059820B9FFE76FF0020002905CE000208DF81300FFE79DF813000F2875
:2011C00053D8FFE7BDF81800C007E8B3FFE70599009108884A8810438A881043CA881043FB
:2011E0004A8910438A891043CA89104309890843ADF8100045F27720ADF80E000598018A82
:20120000BDF810000843ADF81000BDF80E0040F40040ADF80E009DF81B0080019DF8131036
:2012200000EB810043F60041C4F205010844019001980088BDF80E209043BDF81010114032
:20124000084401990880FFE7BDF818004008ADF81800BDF8180008B9FFE706E0FFE79DF893
:20126000130001308DF81300A7E7FFE7029807B07047000043F6FC31C4F205014FF425404C
:201280000880704743F6FC31C4F205014AF201500880704782B08DF80700ADF804109DF815
:2012A000071043F60A00C4F2050000EB01100090BDF80420009908881043088002B0704747
:2012C00083B08DF80B00ADF80810ADF8062000208DF80500FFE79DF805000F282CD8FFE778
:2012E000BDF80800C007B0B1FFE79DF80B0080019DF8051000EB810043F60241C4F20501B4
:201300000844009000980088BDF8061061F3050000990880FFE7BDF808004008ADF80800F4
:20132000BDF8080008B9FFE706E0FFE79DF8050001308DF80500CEE703B0704782B08DF852
:201340000700ADF804109DF8071043F60800C4F2050000EB01100090BDF804200099088897
:201360001043088002B0704783B0029000200190029820B9FFE76FF00200019014E00299D9
:20138000002000900880029948800299C880029908820299088102994881029988810299E3
:2013A000C88102998880FFE7019803B07047000080B584B00290029800680190019848F2F7
:2013C0000101C1F6FF71884218D3FFE700F060F80298416848F20840C1F6FF70016001684C
:2013E00048F20C40C1F6FF700160029909680391039981F3088800688047FFE74FF0FF301D
:2014000004B080BD80B584B00DF10F00002100F021FF0DF10E00012100F01CFFFFE79DF880
:201420000F0001282ED1FFE7FFE700F033F802900298C0B9FFE79DF80E0001280BD1FFE775
:2014400000F088F800208DF807000DF10700012100F030FFFFE700218DF806100DF1060084
:2014600000F028FF08E001208DF805000DF10500002100F01FFFFFE7FFE702980028D4D15D
:20148000FFE7FFE74FF40040FFF792FFC7E700007047000080B588B04FF0FF300690002080
:2014A00005904FF4603004904FF4004003901821FFF74EFA01F0C6F8FFE7BDF81600022819
:2014C00042D8FFE70598C0F540310020B0EB513F05D1FFE70598C0F54030019003E04FF4C9
:2014E00000500190FFE7019802900498029A48F21041C1F6FF71FFF705FA069006980130B6
:2015000018B9FFE70698079021E00398029A48F21041C1F6FF71FFF759FA06900698013047
:2015200018B9FFE70698079011E0029904980844049002990598084405900299039808441C
:20154000039001F07FF8B8E706980790FFE7079808B080BD80B586B0002005904FF40001DE
:20156000049103908021FFF7C7FBFFE705990020B0EBD15F30D1FFE70598C0F50001002021
:20158000B0EB912F05D1FFE70598C0F50000019003E04FF480600190FFE70198029004980D
:2015A000029A48F20801C1F6FF710091FFF7D6FB00990398029AFFF753FD02990498084434
:2015C00004900299059808440590029903980844039001F037F8C9E706B080BD80B54AF215
:2015E0001040C1F6FF7000688047BFF34F8F80BD80B54AF21040C1F6FF7040688047BFF371
:201600004F8F80BD80B54AF21040C1F6FF7080688047BFF34F8F80BD80B54AF21040C1F6D4
:20162000FF70C0688047BFF34F8F80BD80B54AF21040C1F6FF7000698047BFF34F8F80BD9B
:2016400080B54AF21040C1F6FF7040698047BFF34F8F80BD80B54AF21040C1F6FF70806996
:201660008047BFF34F8F80BD80B54AF21040C1F6FF70C0698047BFF34F8F80BD80B54AF2C1
:201680001040C1F6FF70006A8047BFF34F8F80BD80B54AF21040C1F6FF70406A8047BFF3CC
:2016A0004F8F80BD80B54AF21040C1F6FF70806A8047BFF34F8F80BD80B54AF21040C1F632
:2016C000FF70C06A8047BFF34F8F80BD80B54AF21040C1F6FF70006B8047BFF34F8F80BDF7
:2016E00080B54AF21040C1F6FF70406B8047BFF34F8F80BD80B54AF21040C1F6FF70806BF2
:201700008047BFF34F8F80BD80B54AF21040C1F6FF70C06B8047BFF34F8F80BD80B54AF21E
:201720001040C1F6FF70006C8047BFF34F8F80BD80B54AF21040C1F6FF70406C8047BFF327
:201740004F8F80BD80B54AF21040C1F6FF70806C8047BFF34F8F80BD80B54AF21040C1F68F
:20176000FF70C06C8047BFF34F8F80BD80B54AF21040C1F6FF70006D8047BFF34F8F80BD52
:2017800080B54AF21040C1F6FF70406D8047BFF34F8F80BD80B54AF21040C1F6FF70806D4D
:2017A0008047BFF34F8F80BD80B54AF21040C1F6FF70C06D8047BFF34F8F80BD80B54AF27C
:2017C0001040C1F6FF70006E8047BFF34F8F80BD80B54AF21040C1F6FF70406E8047BFF383
:2017E0004F8F80BD80B54AF21040C1F6FF70806E8047BFF34F8F80BD80B54AF21040C1F6ED
:20180000FF70C06E8047BFF34F8F80BD80B54AF21040C1F6FF70006F8047BFF34F8F80BDAD
:2018200080B54AF21040C1F6FF70406F8047BFF34F8F80BD80B54AF21040C1F6FF70806FA8
:201840008047BFF34F8F80BD80B54AF21040C1F6FF70C06F8047BFF34F8F80BD80B54AF2D9
:201860001040C1F6FF70D0F880008047BFF34F8F80BD000080B54AF21040C1F6FF70D0F867
:2018800084008047BFF34F8F80BD000080B54AF21040C1F6FF70D0F888008047BFF34F8FA2
:2018A00080BD000080B54AF21040C1F6FF70D0F88C008047BFF34F8F80BD000080B54AF2AB
:2018C0001040C1F6FF70D0F890008047BFF34F8F80BD000080B54AF21040C1F6FF70D0F8F7
:2018E00094008047BFF34F8F80BD000080B54AF21040C1F6FF70D0F898008047BFF34F8F22
:2019000080BD000080B54AF21040C1F6FF70D0F89C008047BFF34F8F80BD000080B54AF23A
:201920001040C1F6FF70D0F8A0008047BFF34F8F80BD000080B54AF21040C1F6FF70D0F886
:20194000A4008047BFF34F8F80BD000080B54AF21040C1F6FF70D0F8A8008047BFF34F8FA1
:2019600080BD000080B54AF21040C1F6FF70D0F8AC008047BFF34F8F80BD000080B54AF2CA
:201980001040C1F6FF70D0F8B0008047BFF34F8F80BD000080B54AF21040C1F6FF70D0F816
:2019A000B4008047BFF34F8F80BD000080B54AF21040C1F6FF70D0F8B8008047BFF34F8F21
:2019C00080BD000080B54AF21040C1F6FF70D0F8BC008047BFF34F8F80BD000080B54AF25A
:2019E0001040C1F6FF70D0F8C0008047BFF34F8F80BD000080B54AF21040C1F6FF70D0F8A6
:201A0000C4008047BFF34F8F80BD000080B54AF21040C1F6FF70D0F8C8008047BFF34F8FA0
:201A200080BD000080B54AF21040C1F6FF70D0F8CC008047BFF34F8F80BD000080B54AF2E9
:201A40001040C1F6FF70D0F8D0008047BFF34F8F80BD000080B54AF21040C1F6FF70D0F835
:201A6000D4008047BFF34F8F80BD000080B54AF21040C1F6FF70D0F8D8008047BFF34F8F20
:201A800080BD000080B54AF21040C1F6FF70D0F8DC008047BFF34F8F80BD000080B54AF279
:201AA0001040C1F6FF70D0F8E0008047BFF34F8F80BD000080B54AF21040C1F6FF70D0F8C5
:201AC000E4008047BFF34F8F80BD000080B54AF21040C1F6FF70D0F8E8008047BFF34F8FA0
:201AE00080BD000080B54AF21040C1F6FF70D0F8EC008047BFF34F8F80BD000080B54AF209
:201B00001040C1F6FF70D0F8F0008047BFF34F8F80BD000080B54AF21040C1F6FF70D0F854
:201B2000F4008047BFF34F8F80BD000080B54AF21040C1F6FF70D0F8F8008047BFF34F8F1F
:201B400080BD000080B54AF21040C1F6FF70D0F8FC008047BFF34F8F80BD000080B54AF298
:201B60001040C1F6FF70D0F800018047BFF34F8F80BD000080B54AF21040C1F6FF70D0F8E3
:201B800004018047BFF34F8F80BD000080B54AF21040C1F6FF70D0F808018047BFF34F8F9D
:201BA00080BD000080B54AF21040C1F6FF70D0F80C018047BFF34F8F80BD000080B54AF227
:201BC0001040C1F6FF70D0F810018047BFF34F8F80BD000080B54AF21040C1F6FF70D0F873
:201BE00014018047BFF34F8F80BD000080B54AF21040C1F6FF70D0F818018047BFF34F8F1D
:201C000080BD000080B54AF21040C1F6FF70D0F81C018047BFF34F8F80BD000080B54AF2B6
:201C20001040C1F6FF70D0F820018047BFF34F8F80BD000080B54AF21040C1F6FF70D0F802
:201C400024018047BFF34F8F80BD000080B54AF21040C1F6FF70D0F828018047BFF34F8F9C
:201C600080BD000080B54AF21040C1F6FF70D0F82C018047BFF34F8F80BD000080B54AF246
:201C80001040C1F6FF70D0F830018047BFF34F8F80BD000080B54AF21040C1F6FF70D0F892
:201CA00034018047BFF34F8F80BD000080B54AF21040C1F6FF70D0F838018047BFF34F8F1C
:201CC00080BD000080B54AF21040C1F6FF70D0F83C018047BFF34F8F80BD000080B54AF2D6
:201CE0001040C1F6FF70D0F840018047BFF34F8F80BD000080B54AF21040C1F6FF70D0F822
:201D000044018047BFF34F8F80BD000080B54AF21040C1F6FF70D0F848018047BFF34F8F9B
:201D200080BD000080B54AF21040C1F6FF70D0F84C018047BFF34F8F80BD000080B54AF265
:201D40001040C1F6FF70D0F850018047BFF34F8F80BD000080B54AF21040C1F6FF70D0F8B1
:201D600054018047BFF34F8F80BD000080B54AF21040C1F6FF70D0F858018047BFF34F8F1B
:201D800080BD000080B54AF21040C1F6FF70D0F85C018047BFF34F8F80BD000080B54AF2F5
:201DA0001040C1F6FF70D0F860018047BFF34F8F80BD000080B54AF21040C1F6FF70D0F841
:201DC00064018047BFF34F8F80BD000080B54AF21040C1F6FF70D0F868018047BFF34F8F9B
:201DE00080BD000080B54AF21040C1F6FF70D0F86C018047BFF34F8F80BD000080B54AF285
:201E00001040C1F6FF70D0F870018047BFF34F8F80BD000080B54AF21040C1F6FF70D0F8D0
:201E200074018047BFF34F8F80BD000080B54AF21040C1F6FF70D0F878018047BFF34F8F1A
:201E400080BD000080B54AF21040C1F6FF70D0F87C018047BFF34F8F80BD000080B54AF214
:201E60001040C1F6FF70D0F880018047BFF34F8F80BD000080B54AF21040C1F6FF70D0F860
:201E800084018047BFF34F8F80BD000080B54AF21040C1F6FF70D0F888018047BFF34F8F9A
:201EA00080BD000080B54AF21040C1F6FF70D0F88C018047BFF34F8F80BD000080B54AF2A4
:201EC0001040C1F6FF70D0F890018047BFF34F8F80BD000080B54AF21040C1F6FF70D0F8F0
:201EE00094018047BFF34F8F80BD000080B54AF21040C1F6FF70D0F898018047BFF34F8F1A
:201F000080BD000080B54AF21040C1F6FF70D0F89C018047BFF34F8F80BD000080B54AF233
:201F20001040C1F6FF70D0F8A0018047BFF34F8F80BD000080B54AF21040C1F6FF70D0F87F
:201F4000A4018047BFF34F8F80BD000080B54AF21040C1F6FF70D0F8A8018047BFF34F8F99
:201F600080BD000080B54AF21040C1F6FF70D0F8AC018047BFF34F8F80BD000080B54AF2C3
:201F80001040C1F6FF70D0F8B0018047BFF34F8F80BD000080B54AF21040C1F6FF70D0F80F
:201FA000B4018047BFF34F8F80BD000080B54AF21040C1F6FF70D0F8B8018047BFF34F8F19
:201FC00080BD000080B54AF21040C1F6FF70D0F8BC018047BFF34F8F80BD000080B54AF253
:201FE0001040C1F6FF70D0F8C0018047BFF34F8F80BD000080B54AF21040C1F6FF70D0F89F
:20200000C4018047BFF34F8F80BD000080B54AF21040C1F6FF70D0F8C8018047BFF34F8F98
:2020200080BD000080B54AF21040C1F6FF70D0F8CC018047BFF34F8F80BD000080B54AF2E2
:202040001040C1F6FF70D0F8D0018047BFF34F8F80BD000080B54AF21040C1F6FF70D0F82E
:20206000D4018047BFF34F8F80BD000080B54AF21040C1F6FF70D0F8D8018047BFF34F8F18
:2020800080BD000080B54AF21040C1F6FF70D0F8DC018047BFF34F8F80BD000080B54AF272
:2020A0001040C1F6FF70D0F8E0018047BFF34F8F80BD000080B54AF21040C1F6FF70D0F8BE
:2020C000E4018047BFF34F8F80BD000080B54AF21040C1F6FF70D0F8E8018047BFF34F8F98
:2020E00080BD000080B54AF21040C1F6FF70D0F8EC018047BFF34F8F80BD000080B54AF202
:202100001040C1F6FF70D0F8F0018047BFF34F8F80BD000080B54AF21040C1F6FF70D0F84D
:20212000F4018047BFF34F8F80BD000080B54AF21040C1F6FF70D0F8F8018047BFF34F8F17
:2021400080BD000080B54AF21040C1F6FF70D0F8FC018047BFF34F8F80BD000080B582B09B
:2021600001909DF80400C00718B1FFE7FEF778FBFFE79DF804008007002803D5FFE700F07B
:2021800013F9FFE79DF804004007002803D5FFE7FFF778F8FFE79DF80400C006002805D5DA
:2021A000FFE74AF2085000F019F9FFE79DF804004006002805D5FFE74AF2035000F00EF970
:2021C000FFE79DF804000006002803D5FFE700F0E9F9FFE702B080BD80B582B001909DF860
:2021E0000400C00718B1FFE7FEF732FBFFE79DF804008007002803D5FFE700F0CBF8FFE7BE
:202200009DF804004007002803D5FFE7FFF732F8FFE79DF80400C006002805D5FFE74AF26F
:20222000085000F0CBF8FFE79DF804004006002805D5FFE74AF2035000F0C0F8FFE79DF834
:2022400004000006002803D5FFE700F09FF9FFE702B080BD80B586B005908DF813109DF8F4
:20226000132042F6B421C0F2000101EBC20051F832100291406803900120FFF76FFFFFE7F9
:202280004FF48070FEF720FA012801D0FFE7F7E701200190FEF70CFA05990298039AFEF7C7
:2022A000EBFA0020FEF704FA0198FFF795FF06B080BD000080B58CB00B908DF82B109DF8AF
:2022C0002B2042F6B421C0F2000101EBC20051F832100891406809900020079006900590FE
:2022E000FFE70598032819DCFFE705989DF82B10884203D1FFE706980790FFE7059942F673
:20230000B420C0F2000000EBC1004168069808440690FFE7059801300590E2E70120FFF739
:202320001DFFFFE74FF48070FEF7CEF9012801D0FFE7F7E70120FEF7BBF9069A4FF4C04041
:202340000DF10A01FEF798FA38B1FFE70020FEF7AFF90120FFF740FF19E007990DF10A006A
:20236000009008440B99099AFDF7C6FF4FF4C0400190FEF78BFB00990198069AFEF7B4F9BE
:202380000020FEF795F90120FFF726FFFFE70CB080BD000048F21001C4F204010020CAF29D
:2023A000A55008607047000048F21001C4F204010120CAF2A55008607047000081B0ADF83C
:2023C0000200BDF8022044F2FE31C4F205010888904340F42540088001B0704781B0ADF841
:2023E0000200BDF8022044F2FE31C4F2050108881043088001B0704782B001908DF80310B5
:202400009DF80300012806D1FFE70199486840F04000486005E00199486820F040004860B5
:20242000FFE702B07047000081B00090009900204860009A1021D160009A40F61D719161DF
:20244000009AA221516101B07047000080B5FEF7B3FCFEF733FDFEF769FC80BD83B00290AB
:2024600001916FF0020000900198002855D0FFE701988068082807D1FFE70198C068B0F538
:20248000805F01D1FFE747E00198006801280ED1FFE70198806850B9FFE70198406928B104
:2024A000FFE701984069022801D1FFE733E001990868D1F804C08B68CA6840EA0C001843B2
:2024C0004B6A1843104309690843029948600298C0680199896A61F301000299C860019899
:2024E000806808280BD1FFE7019948698B69CA69096A1843104308430299886108E001991E
:202500004869CA69096A1043084302998861FFE700200090FFE7FFE7FFE7009803B07047F8
:2025200081B000900098006801B0704783B002906FF0020001900298E8B1FFE702990020E7
:202540000090086002994860029A08219160029AD060029A1061029A5061029A9161029A3A
:202560004FF48061D1610299086202994862029988620190FFE7019803B0704782B00190F9
:20258000009100980199086002B0704740F60401C4F205017620086040F60C01C4F20501B3
:2025A0000860704740F60401C4F205017720086040F60C01C4F205010860704780B584B07F
:2025C00003900291019200208DF80300FFE70398A8B3FFE79DF80C00C00738B3FFE79DF80A
:2025E0000300C0008DF801009DF8010004308DF8020040F60001C4F2050108689DF802C087
:20260000072303FA0CF29DF801E003FA0EF313439843029A02FA0CF2DDF804C00CFA0EFCB1
:2026200042EA0C021A4010440860FFE70398400803909DF8030001308DF80300C7E704B03B
:2026400080BD000049F20841C4F2040140F22310086043F2102008607047000080B588B040
:202660000790069100208DF8170048F20000C4F204000068049048F20400C4F20400006820
:20268000039048F20800C4F204000068029048F20C00C4F204000068019044F22600C4F2A6
:2026A0000500007800F00700052821D1FFE701208DF8170048F20001C4F204014FF6EE209B
:2026C000CFF6FF70086048F20401C4F204014FF0FF30086048F20801C4F20401086048F2EE
:2026E0000C01C4F2040108601E20FDF791FFFFE744F22001C4F205010868079B9843069A62
:202700001A40104408601E20FDF782FF9DF8170001281CD1FFE7049848F20001C4F20401B6
:202720000860039848F20401C4F204010860029848F20801C4F204010860019848F20C0154
:20274000C4F2040108601E20FDF762FFFFE708B080BD000080B586B08DF8170000208DF83C
:20276000160048F20000C4F204000068049048F20400C4F204000068039048F20800C4F268
:2027800004000068029048F20C00C4F204000068019044F22600C4F20500007800F00700BC
:2027A000052805D0FFE79DF81700052821D1FFE701208DF8160048F20001C4F204014FF689
:2027C000EE20CFF6FF70086048F20401C4F204014FF0FF30086048F20801C4F20401086019
:2027E00048F20C01C4F2040108601E20FDF710FFFFE79DF8170044F22601C4F2050108700B
:202800001E20FDF705FF9DF8160001281CD1FFE7049848F20001C4F204010860039848F20C
:202820000401C4F204010860029848F20801C4F204010860019848F20C01C4F2040108606D
:202840001E20FDF7E5FEFFE706B080BD80B584B002A8FDF781FE47F27770C0F2777042F217
:202860001021C0F21101FDF7ADFD0120FDF7D8FDFFE70120FDF76AFD012801D0FFE7F8E7BA
:20288000002003909DF80C1001F0E0018DF80C10BDF80D1001F47E411931ADF80D109DF83A
:2028A0000F10022262F31F118DF80F109DF80F1001F0F00102318DF80F10BDF80D1062F318
:2028C0001F31ADF80D108DF808009DF80C0040F080008DF80C0002A8FDF74AFDFFE720206C
:2028E000FDF734FD012801D0FFE7F8E70420002200921146FFF762FE0B2001220192114637
:20290000FFF75CFE5020FEF719F90520FDF766FD0198FDF7B7FE0098FDF7B4FE0198FDF767
:20292000A5FE04B080BD000086B040F28460C4F201000068C00750B1FFE748F20001C1F6F8
:20294000FF7142F20040C0F2F400086009E048F20001C1F6FF7142F60050C0F23110086057
:20296000FFE744F22600C4F20500007800F007008DF817009DF8170001460091052867D85F
:202980000099DFE801F0030E18202A3248F20000C1F6FF70006848F20401C1F6FF710860AB
:2029A00057E048F20401C1F6FF7141F20020C0F27A0008604DE048F20401C1F6FF714FF4BD
:2029C0000040086045E048F20401C1F6FF7141F20020C0F27A0008603BE048F20401C1F6CC
:2029E000FF714FF40040086033E044F20010C4F205000168C1F3082104910168090F039178
:202A0000016801F01F01029100680006002806D4FFE741F20020C0F27A00019006E048F223
:202A20000000C1F6FF7000680190FFE7019802990131B0FBF1F00499013148430399013177
:202A4000B0FBF1F048F20401C1F6FF71086000E0FFE706B07047000080B54EF68851CEF2D7
:202A60000001086840F470000860FFF75DFF4EF60851CEF200010020086080BD80B5C72048
:202A8000FFF76CFBFDF7B6FC8320FFF7A5FBFEF7B9FC002080BD02E008C8121F08C1002A1D
:202AA000FAD170477047002001E001C1121F002AFBD170470060000001000000016000007A
:202AC0000100000005600000040000000960000004000000E42A00000880FF1F084600001D
:202AE000A62A0000FFFFFFFFFFFFFFFFFFFFFFFFFFFFFFFFFFFFFFFFFFFFFFFFFFFFFFFF22
:202B0000FFFFFFFFFFFFFFFFFFFFFFFFFFFFFFFFFFFFFFFFFFFFFFFFFFFFFFFFFFFFFFFFD5
:202B2000FFFFFFFFFFFFFFFFFFFFFFFFFFFFFFFFFFFFFFFFFFFFFFFFFFFFFFFFFFFFFFFFB5
:202B4000FFFFFFFFFFFFFFFFFFFFFFFFFFFFFFFFFFFFFFFFFFFFFFFFFFFFFFFFFFFFFFFF95
:202B6000FFFFFFFFFFFFFFFFFFFFFFFFFFFFFFFFFFFFFFFFFFFFFFFFFFFFFFFFFFFFFFFF75
:20800000B068012095820000F9D7000031C50000D1820000D3820000D5820000000000004B
:20802000000000000000000000000000EDF10000D98200000000000049DD000071F7000079
:2080400021C8000035C8000049C800005DC8000071C8000085C8000099C80000ADC80000A8
:20806000C1C80000D5C80000E9C80000FDC8000011C9000025C9000039C900004DC9000084
:2080800061C9000075C9000089C900009DC90000B1C90000C5C90000D9C90000EDC9000060
:2080A00001CA000015CA000029CA00003DCA000051CA000065CA000079CA00008DCA000038
:2080C000A1CA0000B9CA0000D1CA0000E9CA000001CB000019CB000031CB000049CB0000A4
:2080E00061CB000079CB000091CB0000A9CB0000C1CB0000D9CB0000F1CB000009CC00007F
:2081000021CC000039CC000051CC000069CC000081CC000099CC0000B1CC0000C9CC000057
:20812000E1CC0000F9CC000011CD000029CD000041CD000059CD000071CD000089CD000031
:20814000A1CD0000B9CD0000D1CD0000E9CD000001CE000019CE000031CE000049CE00000B
:2081600061CE000079CE000091CE0000A9CE0000C1CE0000D9CE0000F1CE000009CF0000E6
:2081800021CF000039CF000051CF000069CF000081CF000099CF0000B1CF0000C9CF0000BF
:2081A000E1CF0000F9CF000011D0000029D0000041D0000059D0000071D0000089D0000099
:2081C000A1D00000B9D00000D1D00000E9D0000001D1000019D1000031D1000049D1000073
:2081E00061D1000079D1000091D10000A9D10000C1D10000D9D10000F1D1000009D200004E
:2082000021D2000039D2000051D2000069D2000081D2000099D20000B1D20000C9D2000026
:20822000E1D20000F9D2000011D3000029D3000041D3000059D3000071D3000089D3000000
:20824000DF820000DF820000DF820000DF820000DF820000DF820000DF820000DF82000016
:20826000DF820000DF820000DF820000DF820000DF820000DF820000DF820000DF820000F6
:20828000DFF80CD000F048F900480047757A0100B068012012484FF01F01016011484FF090
:2082A0007701016010484FF0770101600F484FF4885101600B484FF0760101600A484FF0A6
:2082C000760101600A4880470A480047FEE7FEE7FEE7FEE7FEE7FEE7FEE7FEE7FEE7FEE722
:2082E00010080540040805400C08054000080540E5F900008182000030B50B4601460020AC
:208300002022012409E021FA02F59D4205D303FA02F5491B04FA02F52844151EA2F10102C2
:20832000F1DC30BDD2B201E000F8012B491EFBD270470022F6E710B513460A4604461946F9
:20834000FFF7F0FF204610BD10B5044604E00B7800F8013B03B1491C521EF8D2204610BDD5
:20836000421C10F8011B0029FBD1801A704710B5002200E0521C835C8C5CA34201D1002B57
:20838000F8D1D8B2E1B2401A10BD30B504460020034600E05B1C934203D2E05CCD5C401B77
:2083A000F8D030BD034611F8012B00F8012B002AF9D118467047000070B50F4D00B9286893
:2083C000002412E00A4602E09E4203D0521C1378002BF9D1DAB2224305D02BB124B100211C
:2083E00000F8011B04E00446401C0678002EE9D12860204670BD00000880FF1F2DE9F05F53
:2084000093460F4680460446002612F053F9D0F80090824614F8015B2DB100F029F80068CB
:20842000405DC007F6D12B2D02D02D2D1AD0641E0021CAF800105A463946204600F01CF8A5
:20844000014627B13868A04201D1C7F80080DAF80000022809D0CAF80090700505D548426A
:20846000BDE8F09F46F48066E2E70846F8E7000000487047D0A901002DE9F05F8246007894
:20848000002715468B460AF10104B946302801D09DB113E014F8010B0127782803D05828ED
:2084A00001D045B10AE00DB1102D07D10027102514F8010B02E0082500E00A250026B0468A
:2084C0000EE005FB080005FB06F1012701EB10461FFA80F8B6F5803F00D3B94614F8010B60
:2084E000294600F031F80028EBDABBF1000F05D00FB1641E00E05446CBF80040B9F1000FFF
:2085000006D012F0D7F802210160C81EBDE8F09F48EA0640FAE700001CB5094800900948BA
:2085200001900546009C06E0E06840F0010394E8070098471034AC42F6D3FFF7A5FE00006B
:208540005CF901007CF901003A2800D2303820F02002412A01D3A2F13700884201D34FF09B
:20856000FF3070472DE9F05F0546002092469B4688460646814640241BE0284641464746CA
:20858000224600F0E7F953465A46C01A914110D311461846224600F0CEF92D1A67EB010865
:2085A0004F4622460120002100F0C5F917EB00094E41201EA4F10104DFDC484631462A462C
:2085C0004346BDE8F09F10B5431A934209D28318881803E010F8011D03F8011D521EF9D274
:2085E00010BD40EA01039B0703D009E008C9121F08C0042AFAD203E011F8013B00F8013B02
:20860000521EF9D210BD2DE9FE4F804681EA0300C00F0C46009021F0004123F00045B8EBBD
:208620000200A94105D24046214690461C460B46024623F00040104347D0270DC7F30A0004
:20864000C3F30A510290401A019040286BDAC3F3130040F4801B0098924620B10023D2EB26
:20866000030A63EB0B0B01985946C0F14002504600F061F906460D4650465946019A00F01F
:2086800079F910EB08006141002487EA115284EAE7731A4340D0009A62B3019A012A4FEAE8
:2086A000075215DC001B61EB02014FF0004202EA0752CDE90042001C41F5801132462B467C
:2086C00000F0B0F903B0BDE8F08F40462146F9E7001B61EB0201001C41F5801300185B415A
:2086E0002018A2F5001747EB030140EAD570B6196D4111E06D084FEA360645EAC0754FEAFA
:208700000752001B61EB0201001C41F5801149084FEA30000019514132462B4603B0BDE80D
:20872000F04F00F070B90098012240000023D0EB020263EBE073009821464FEAE074B8EB34
:20874000000061EB0401E9E783F000435BE781F0004158E72DE9F04D81EA030404F0004B0B
:2087600021F0004514464FF0000A23F0004150EA050220D054EA01021DD0C5F30A570246EC
:20878000C5F31303C1F31300C1F30A5640F4801543F48013A7EB0608101BD64608F2FD3887
:2087A00073EB050002D308F1010801E092185B41B8F1000F03DA00200146BDE8F08D00201A
:2087C0004FF48011064684460EE0171B73EB050705D3121B63EB050306434CEA010C4908ED
:2087E0004FEA300092185B4150EA0107EDD152EA030012D082EA040083EA0501084305D0A6
:20880000101BAB4106D20122002306E000224FF0004302E06FF0010253101AEB06004CEBB0
:20882000085110EB0A0041EB0B01BDE8F04D00F0EAB830B5041E71F1000404DB4FF000445F
:20884000404264EB0101141E73F1000405DB1C464FF00043524263EB0403101A8B4101D235
:20886000012030BD002030BD0EB540F2334102910021CDE900110A460B4600F0D3F803B0EA
:2088800000BD0EB540F2334202920022CDE90022134600F0C7F803B000BD70B5C1F30A5276
:2088A00001F000450024C1F3130140F2FF3341F480119A4201DA002070BD40F233439A42E4
:2088C000A2F2334203DC524200F044F800E090402C43F1D0404270BD00F0004230F00040CF
:2088E0000AD0C10D01F56071C0F3160042EA0151C20840071143704700200146704701F097
:20890000004330B421F0004150EA010206D00A0DA2F56072C1F31301002A02DC30BC00206F
:208920007047440F44EAC104C100E01830BC00EBC25000F031B8202A04DB203A00FA02F14F
:20894000002070479140C2F1200320FA03F3194390407047202A04DB203A21FA02F00021F5
:20896000704721FA02F3D040C2F120029140084319467047202A06DBCB17203A41FA02F085
:2089800043EAE07306E041FA02F3D040C2F1200291400843194670470029A8BF7047401C87
:2089A000490008BF20F00100704710B4B0FA80FC00FA0CF050EA010404BF10BC704749B180
:2089C000CCF1200421FA04F411FA0CF118BF012121430843A3EB0C01CB1D4FEA00614FEA9D
:2089E000102042BF002010BC704700EBC35010440029A4BF10BC7047401C490008BF20F0C6
:208A0000010010BC704710B5141E73F1000408DA401C41F1000192185B411A4301D120F07D
:208A2000010010BD2DE9F04D92469B4611B1B1FA81F202E0B0FA80F220329046FFF77BFFE6
:208A400004460F4640EA0A0041EA0B0153465A46084313D0114653EA010019D0C8F140022C
:208A60005046FFF777FF05460E46504659464246FFF761FF084305D0012004E02046394638
:208A8000BDE8F08D0020054346EAE0762C4337430A986305E40AA0EB08000022FD0A44EAFB
:208AA00047540A3002D500200146E9E7010510196941DDE9084500196941BDE8F04DA2E7B9
:208AC00070B58C1810F8015B15F0070301D110F8013B2A1106D110F8012B03E010F8016BA7
:208AE00001F8016B5B1EF9D12B0705D40023521E0DD401F8013BFAE710F8013BCB1A921C62
:208B000003E013F8015B01F8015B521EF9D5A142D8D3002070BD000083B00021C4F204018E
:208B2000029100218DF807108DF8060001208DF8050002989DF8071000EB81000C30009031
:208B40009DF8050001280AD1FFE79DF80600012101FA00F000990A68104308600AE09DF8A4
:208B60000600012101FA00F000990A6822EA00000860FFE703B0704782B00020C4F2040007
:208B8000019001208DF803009DF8030080F00300019981F8460002B07047000082B000217B
:208BA000C4F2040101918DF8030001208DF802009DF8020001280AD1FFE79DF803000121FD
:208BC00001FA00F001994A69104348610AE09DF80300012101FA00F001994A6922EA000079
:208BE0004861FFE702B0704782B00020C4F2040001904FF44070ADF802000198408820F4D1
:208C0000E060BDF8021001F4E06108440199488002B0704782B00020C4F204000190012042
:208C20008DF8030000208DF80200019890F846009DF803100840000620B1FFE701208DF84B
:208C40000200FFE79DF8020002B0704782B00021C4F2040101918DF8030001989DF80310C3
:208C600000EB4100B0F8500002B0704783B00021C4F20401029101906FF0020000900198AA
:208C800058B1FFE70198018842881143808808430299488000200090FFE703B070470000EF
:208CA00010B586B001F0E2FC0DF11204204600F06DF82046FFF7DAFF6C46204602F01CFBC5
:208CC0004FF40040ADF8100000200121224602F0D7F900200221224602F0D2F90120FFF771
:208CE0001BFF0020FFF718FF012000F00DF8002000F00AF8FFF778FF0120FFF74FFF002013
:208D0000FFF74CFF06B010BD83B00021C4F2040102918DF8070040208DF8060002989DF847
:208D200007100844203000909DF807000F2805D8FFE79DF806000099087005E09DF806002E
:208D4000029981F83000FFE703B0704782B00020C4F20400019000200090019800780128F8
:208D600004D1FFE76FF00500009003E0019801210170FFE702B0704781B00020C4F20400DB
:208D8000009000980021017001B0704782B001906FF002000090019848B1FFE701980021CB
:208DA000018001984180019881800091FFE702B07047000082B00190ADF8021001980068E3
:208DC000BDF8021061F308000199086002B0704781B044F25470C2F2010000900098C168D4
:208DE0000069081AB0FA80F0400901B07047000081B000900098006901B0704784B044F289
:208E00005470C2F20100039044F25050C2F2010002904FF4007001906FF002000090039859
:208E2000B0B1FFE7029898B1FFE7019880B1FFE702980399086003980021416003988160FB
:208E40000198039AD0600198039A10610091FFE704B0704780B586B044F25471C2F2010107
:208E6000049103900120029000200090049800285BD0FFE70398002857D0FFE70298002800
:208E800053D0FFE7049800F053F8009000980299884203D3FFE702980090FFE70498009964
:208EA0008268C0681144814209D8FFE7039804990A6889681144009AFFF785FB16E004982F
:208EC0008168C068401A0190039804990A6889681144019AFFF777FB0398019A104404997C
:208EE0000968009B9A1AFFF76EFBFFE7EFF3108072B60590009804990A6910440861009841
:208F000004998A681044886004988168C068814209D3FFE704988168C268B1FBF2F303FB16
:208F200012118160FFE762B6FFE7009806B080BD81B000900098C1680069081A01B0704749
:208F400080B586B044F25471C2F20101049103900120029000200090049800285BD0FFE795
:208F60000398002857D0FFE70298002853D0FFE70498FFF73DFF009002980099884203D820
:208F8000FFE702980090FFE7049800994268C0681144814209D8FFE70498016840680844FC
:208FA0000399009AFFF70FFB16E004984168C068401A019004980168406808440399019AFD
:208FC000FFF701FB049800680399019A1144009B9A1AFFF7F8FAFFE7EFF3108072B60590C3
:208FE000009804990A69101A0861009804994A681044486004984168C068814209D3FFE761
:2090000004984168C268B1FBF2F303FB12114160FFE762B6FFE706B080BD000080B584B04E
:2090200003908DF80B109DF80B004EF65C11C0F2010101EBC00251F83000009050680190F8
:2090400003980099019A00F0EFFF04B080BD000010B58AB009908DF823109DF823004EF626
:209060005C11C0F2010101EBC00251F830000690506807900020059004900390FFE7039866
:20908000032819DCFFE703989DF82310884203D1FFE704980590FFE703984EF65C11C0F2CE
:2090A000010101EBC0004068049908440490FFE7039801300390E2E7012004F099FAFFE741
:2090C0004FF4807001F07AF8012801D0FFE7F7E7012001F067F8049A0DF102014FF4C040E9
:2090E00001F040F938B1FFE7002001F05BF8012004F0BCFA18E005980DF1020420440999A9
:20910000079AFFF760FA4FF4C04001F071F9049A4FF4C040214601F061F8002001F042F8E3
:20912000012004F0A3FAFFE70AB010BD81B08DF8030044F23C00C4F2050000789DF803100A
:209140000840C0B2002818BF012001B07047000080B582B001208DF80700002000909DF874
:20916000070098BBFFE744F22600C4F205000078400720B9FFE76FF00500009025E044F2EB
:209180000010C4F205000068C0B20121B1EBD01F13D1FFE744F22A00C4F20500007820B947
:2091A000FFE76FF00500009006E044F23600C4F2050001210170FFE706E044F23600C4F247
:2091C000050001210170FFE7FFE70AE044F23600C4F2050000210170012000F035F90090B9
:2091E000FFE702B080BD000080B582B0684600F0D1F800F007F9FFF7ABFFFFE70120FFF73F
:2092000095FF012801D0FFE7F8E7002001909DF8041001F0E0018DF80410BDF8051001F477
:209220007E411931ADF805109DF80710022262F31F118DF807109DF8071001F0F0010231B9
:209240008DF80710BDF8051062F31F31ADF805108DF800009DF8040040F080008DF80400F2
:20926000684600F06DF8FFE72020FFF75FFF012801D0FFE7F8E704200021002205F070FFE7
:209280000B200121012205F06BFF01F0FDF802F01FF804F025FD00F0C9F8012000F0AEFE8C
:2092A000002000F0ABFE00F09BFE02B080BD000080B582B08DF80700002000909DF807003E
:2092C000B0B9FFE744F22600C4F20500007800F00700052804D1FFE76FF00500009006E0F7
:2092E00044F22A00C4F2050001210170FFE723E044F20010C4F205000068C0B20021B1EB3F
:20930000D01F05D1FFE7082000F09EF8009004E0012000F099F80090FFE7009858B9FFE7D9
:2093200044F22A00C4F2050000210170202000F08BF80090FFE7FFE7009802B080BD0000EA
:2093400080B582B00190019820B9FFE76FF0020000901CE044F20010C4F205000168019ACB
:209360001279D20962F3C71101600199496801600198007828B9FFE70120FFF799FF009036
:2093800004E00020FFF794FF0090FFE7FFE702B080BD000082B0019000200090019820B910
:2093A000FFE76FF0020000902AE00198002141600198017901F07F0101710198017901F077
:2093C000E00101710198B0F8051001F47E411331A0F805100198C179012262F31F11C17192
:2093E0000198C17901F0F0010131C1710198B0F8051062F31F31A0F8051001980270FFE7BB
:2094000002B0704780B582B047F27770C0F27770019042F21020C0F2110000900198009949
:2094200005F0F2FE06F04AFA02B080BD80B582B005208DF807009DF8070005F05DFF06F023
:209440003DFA02B080BD000080B584B08DF80F004FF480500290002001906FF0070000909D
:20946000FFE70198029988420ED8FFE79DF80F00FFF75CFE012803D1FFE70020009004E0D1
:20948000019801300190ECE7FFE7009804B080BD80B586B001228DF817200490039100209D
:2094A00002906FF002000190049858B3FFE7039840B3FFE79DF81700042805D1FFE70498F7
:2094C000039900F049F90FE09DF81700022805D1FFE70498039900F021F904E004980399DF
:2094E00000F058F9FFE7FFE7029850B1FFE748F60440C4F20000006802990860002001908A
:20950000FFE7FFE706B080BD80B584B003900A20029003980090009800F016F800906846D5
:20952000012100F019F9FFE70298411E029110B1FFE700BFF8E700F099F88DF807009DF8AE
:20954000070004B080BD000086B00590059801901C20009048F60040C4F200000068029020
:20956000029800F01C001C2871D0FFE79DF808008007002804D5FFE720208DF8120003E015
:2095800010208DF81200FFE79DF808000007002811D4FFE7019890FAA0F001909DF812009C
:2095A000102807D1FFE7BDF806000190BDF804000190FFE7FFE79DF80800C006002804D4F0
:2095C000FFE70198C0430190FFE79DF80800400700283BD4FFE79DF81200C0088DF812008B
:2095E00000208DF81300FFE79DF813009DF8121088422ADAFFE79DF81300C0008DF81100BC
:2096000001989DF81110C840C0B20390039890FAA0F0039003989DF81110C1F11801C84082
:2096200003909DF81100FF2101FA00F0019921EA000001900398019908430190FFE79DF824
:20964000130001308DF81300CEE7FFE7FFE7019806B0704781B00020009048F60040C4F292
:2096600000001C21016001B07047000081B048F60040C4F2000000688007002809D5FFE7A4
:2096800048F60C40C4F20000006800F00100009008E048F60440C4F20000006800F4803075
:2096A0000090FFE70098002818BF012001B0704782B001906FF002000090019858B3FFE7D6
:2096C00001988168C26800691143084348F60041C4F2000108600868019A1268520862F304
:2096E00041000860019800788007002808D4FFE70198808848F60441C4F20001086007E015
:209700000198406848F60441C4F200010860FFE700200090FFE702B07047000084B00390BA
:20972000029148F68040C4F20000009000200190FFE70198029988420BD2FFE703980199C5
:2097400030F8110000990880FFE7019801300190EFE704B07047000084B00390029148F695
:209760008040C4F20000009000200190FFE70198029988420BD2FFE70398019950F82100ED
:2097800000990860FFE7019801300190EFE704B07047000084B00390029148F68040C4F238
:2097A0000000009000200190FFE70198029988420AD2FFE703980199405C00990870FFE7FA
:2097C000019801300190F0E704B0704710B52DED028B8EB00D900C91012001904FF0FF30E8
:2097E00000900C9800680A900C9840680B900A98002800F0E380FFE70B98002800F0DE8030
:20980000FFE70A980B998900B0FBF1F0013805900598FF287CD8FFE705980C9988600A986F
:209820000B998900B0FBF1F202FB11000490049828B9FFE70C9800210161009167E00598CC
:2098400001304FF0000141F100020B9BA0FB030402FB0342920042EA907280000890099266
:209860000898099A120242EA10630A9A5FEA51014FEA320414EB002059410023FEF772FE03
:209880008038039003987F283DD8FFE703980C99C86008980999090241EA10610002089055
:2098A00009910A98039980314FF0000444F10002A0FB011300FB023006910790069807995D
:2098C000FEF7DFFF41EC180B08980999FEF7D9FF41EC100B51EC180B53EC102BFEF73AFF06
:2098E00041EC100B51EC100BFFF709F800EE100ABFEE001A30EE010A8DED020A02980C9914
:209900000861009402E000200190FFE7FFE7FFE70198002851D1FFE70A9800EB80004000EF
:209920000B998900B0FBF1F005304CF6CD41CCF6CC41A0FB01014FF0FF3000EBD1000590BE
:209940000598FF2838D8FFE705980C998860059801304FF0000444F100010B9AA0FB020397
:2099600001FB0231890041EA90718000089009910A98FEF779FF41EC180B08980999FEF7BB
:2099800080FF41EC100B51EC180B53EC102BFEF7E1FE41EC100B51EC100BFEF7B0FF00EE20
:2099A000100ABFEE001A30EE010A8DED020A02980C9908610094FFE7FFE7FFE700980EB0D3
:2099C000BDEC028B10BD000083B0029048F20400C1F6FF70006844F22001C4F2050109686F
:2099E000C1F30261C84041F26F71084441F6F111C0F27651A0FB0101C8090090FFE70298B9
:209A0000411E029150B1FFE700980190FFE70198411E019108B1FFE7F9E7F0E703B0704714
:209A200083B01E20029048F20400C1F6FF70006844F22001C4F205010968C1F30261C840B4
:209A400048F67F51C0F25B01084449F68171C1F25E61A0FB0101C80C0090FFE70298411E1B
:209A6000029150B1FFE700980190FFE70198411E019108B1FFE7F9E7F0E703B07047000013
:209A800086B004908DF80F108DF80E200020ADF80C0048F21840C1F6FF700078002840F04C
:209AA0003E81FFE748F21840C1F6FF70012101700498C0699DF80F20914088430290029865
:209AC000002800F00681FFE70498C069C007B0B3FFE79DF80F0090B3FFE70498806C000CCB
:209AE00001900498806E000C009000980B2801D3FFE723E00098019988421DD2FFE7FFE770
:209B00000498C069C007B0B1FFE7BDF80C000130ADF80C00BDF80C00B0F5A04F0AD9FFE7B1
:209B200048F21840C1F6FF70002101706FF007000590F8E0E4E700E0FFE7FFE7FFE704980F
:209B4000C069800700283DD5FFE79DF80F00012838D0FFE70498D0F88800000C0190049855
:209B6000D0F8A800000C009000980B2801D3FFE727E000980199884221D2FFE70020ADF8B3
:209B80000C00FFE70498C0698007002816D5FFE7BDF80C000130ADF80C00BDF80C00B0F585
:209BA000A04F0AD9FFE748F21840C1F6FF70002101706FF007000590B5E0E3E700E0FFE783
:209BC000FFE7FFE70498C069400700283DD5FFE79DF80F00022838D0FFE70020ADF80C0000
:209BE0000498D0F8C800000C01900498D0F8E800000C009000980B2801D3FFE724E0009893
:209C0000019988421ED2FFE7FFE70498C0694007002816D5FFE7BDF80C000130ADF80C007C
:209C2000BDF80C00B0F5A04F0AD9FFE748F21840C1F6FF70002101706FF00700059072E06F
:209C4000E3E700E0FFE7FFE7FFE70498C069000700283DD5FFE79DF80F00032838D0FFE7FF
:209C60000020ADF80C000498D0F80801000C01900498D0F82801000C009000980B2801D341
:209C8000FFE724E00098019988421ED2FFE7FFE70498C0690007002816D5FFE7BDF80C009C
:209CA0000130ADF80C00BDF80C00B0F5A04F0AD9FFE748F21840C1F6FF70002101706FF0FB
:209CC000070005902FE0E3E700E0FFE7FFE7FFE7FFE79DF80E0001280CD1FFE79DF80F0064
:209CE000012101FA00F000F00F000499CA691043C8610CE09DF80F00012101FA00F00499D2
:209D0000CA6922EA000000F00F00C861FFE748F21840C1F6FF7000210170059103E04FF0F4
:209D2000FF300590FFE706B07047000082B043F20001C4F2050101910090009801998861AB
:209D400002B0704782B0019001208DF803009DF803000199086002B07047000080B585B0C1
:209D600004908DF80F10029200200190029820B9FFE76FF00200019037E002984068049925
:209D80009DF80F2001EB821108640298806804999DF80F2001EB8211486402980169406959
:209DA0006FF39F2141EA004004999DF80F2001EB8211886404989DF80F1000EB81105C30F2
:209DC00000900098006841F20F3C20EA0C0E029A1368D1689069D26919430843104300EAE9
:209DE0000C00704400990860FFE7019805B080BD83B043F20041C4F2050102918DF80700AD
:209E00009DF8070000F52100009000980299086303B0704785B043F20041C4F205010391FD
:209E200001218DF80B1001900020ADF80200019803999DF80B2001EB82114864FFE7019869
:209E400003999DF80B2001EB8211496E884218D0FFE7BDF802000130ADF80200BDF8020092
:209E6000B0F5805F04D9FFE76FF0070004900BE0019803999DF80B2001EB82114864FFE7B0
:209E8000DDE700200490FFE705B0704785B0039000208DF80B000191ADF802000198039912
:209EA0009DF80B2001EB82110864FFE7019803999DF80B2001EB8211096E884218D0FFE78E
:209EC000BDF802000130ADF80200BDF80200B0F5805F04D9FFE76FF0070004900BE0019877
:209EE00003999DF80B2001EB82110864FFE7DDE700200490FFE705B07047000086B00490A1
:209F00008DF80F10ADF80C200020ADF80A0004989DF80F1000EB8110483000900098006829
:209F2000BDF80C10C0EA01400099086004989DF80F1000EB811068300190FFE7BDF80C00C8
:209F400001990968B0EB114F19D0FFE7BDF80A000130ADF80A00BDF80A00B0F5805F04D96D
:209F6000FFE76FF0070005900CE000980068BDF80C10C0EA014000990860FFE7DEE700208C
:209F80000590FFE706B0704782B0019000200090019820B9FFE76FF00200009012E0019892
:209FA0000021016001984160019881600198C1600198012202610198416101988161019843
:209FC000C161FFE702B0704780B54FF2BF30C2F20000012101700120FFF7A8FE80BD00006A
:209FE00081B001208DF803009DF8030048F24011C4F22021086001B07047000081B08DF8E7
:20A0000003009DF8030048F26011C4F22021086001B0704781B00090009840F21441C4F29D
:20A020000101086001B0704780B584B0039202910190012003F0DCFAFFE74FF4807000F039
:20A04000BDF8012801D0FFE7F7E7012000F0AAF801990298039A00F085F9002000F0A2F8F1
:20A06000012003F003FB04B080BD000010B586B04FF46030049018200390012003F0B8FAEA
:20A08000FFE74FF4807000F099F8012801D0FFE7F7E7012000F086F80498029000200190FA
:20A0A000FFE701980399884213D2FFE7029800F09FF90090009818B1FFE70098059011E0D9
:20A0C000029800F500500290FFE7019801300190E7E70024002000F065F8012003F0C6FA9B
:20A0E0000594FFE706B010BD80B588B007904AF2F050C1F6FF7006900591002004900120B7
:20A1000003F076FAFFE74FF4807000F057F8012801D0FFE7F7E7012000F044F800200390C6
:20A12000FFE703980599884232D2FFE707986FF35F3002900298C0F50050019005980399C1
:20A14000401A0199884204D2FFE705980399401A01E00198FFE700900098B0F5005F03D98A
:20A16000FFE74FF4005001E00098FFE7009007980699039A1144009A00F030F80490009869
:20A180000399084403900098079908440790C8E7002000F007F8012003F068FA049808B0A1
:20A1A00080BD000081B08DF803009DF8030048F28011C4F22021086001B0704781B00090BE
:20A1C000009840F21041C4F201010968009A1140401AB0FA80F0400901B0704780B58CB0BA
:20A1E0000B900A91099200200890099989080591099901F0030104910A9903910B99029173
:20A200008DF81B0040F23F10FFF704FF40F20840C4F2010001680022C0F2011211400791BA
:20A2200001684FF6FF72CFF6FE621140016040F20C40C4F201000168012262F3061101609A
:20A24000FFE70599481E0590002029B1FFE70898B0FA80F04009FFE7C00710B3FFE70398AB
:20A26000011D0391006802990A1D029208609DF81B0048F20401C1F6FF71096844F2200227
:20A28000C4F205021268C2F30262D14041F25972CDF2B712A1FB0212910B00F035F90890D5
:20A2A000CFE7049870B3FFE7089858BBFFE70398006801900498C0004FF0FF3101FA00F060
:20A2C000019908430190019802990A1D029208609DF81B0048F20401C1F6FF71096844F2F4
:20A2E0002002C4F205021268C2F30262D14041F25972CDF2B712A1FB0212910B00F004F91C
:20A300000890FFE740F20C40C4F20100016821F07001016040F20840C4F2010001684FF65F
:20A32000FF72CFF6FE621140079A0023C0F201131A401144016008980CB080BD40F2004091
:20A34000C4F20100002101607047000040F20040C4F2010040F22311016043F21021016056
:20A360007047000080B588B00790069105926FF00200049007980390059802904FF480706B
:20A380000190069888B3FFE7019848F20401C1F6FF71096844F22002C4F205021268C2F3B9
:20A3A0000262D14041F25972CDF2B712A1FB0212910B00F0DDF898B9FFE7FFE7029860B1C9
:20A3C000FFE70398411C0391007806994A1C06920870029801380290F0E70020049003E0AB
:20A3E0006FF004000490FFE7FFE7049808B080BDF0B585B0049040F23F10FFF70BFE40F2E9
:20A400000844C4F2010420680025C0F201152840029020684FF6FF76CFF6FE66304020606B
:20A4200000208DF8070040F20C47C4F201073968042262F306113960049908609DF80700C0
:20A4400048F20401C1F6FF71096844F22002C4F205021268C2F30262D14048F21F52C5F20A
:20A46000EB12A1FB0212110900F04EF80390386820F070003860206830400299294008444C
:20A480002060039805B0F0BD83B0502001900020009040F20840C4F201000168019A12090B
:20A4A00062F307110160FFE7019840F20841C4F20101096801F0F001884220D0FFE7009891
:20A4C00001300090009848F20401C1F6FF71096844F22002C4F205021268C2F30262D14093
:20A4E00041F25972CDF2B712A1FB0212B0EB923F04D9FFE76FF00700029003E0D4E7002041
:20A500000290FFE703B0704780B584B08DF80F000291002001909DF80F004FF4807101FA45
:20A5200000F0029900F024F8083020B9FFE76FF004000190FFE70198B8B9FFE79DF80F001F
:20A54000102101FA00F0FFF739FE012808D1FFE79DF80F00102101FA00F0FFF75BFD03E0D9
:20A560004FF0FF300190FFE7FFE7019804B080BD80B584B003900291002001900090FFE7D0
:20A580000398FFF71BFE01280DD0FFE701980130019001980299884204D9FFE76FF00700A3
:20A5A000009001E0ECE7FFE7009804B080BD000082B001908DF803109DF8030001280AD1F1
:20A5C000FFE7019848F20001C4F204010A6822EA0000086008E0019848F20001C4F20401A9
:20A5E0000A6810430860FFE702B0704782B001908DF803109DF8030001280AD1FFE7019869
:20A6000048F20401C4F204010A6822EA0000086008E0019848F20401C4F204010A6810431A
:20A620000860FFE702B0704782B04FF48030019001208DF803009DF8030001280AD1FFE782
:20A64000019848F20801C4F204010A6822EA0000086008E0019848F20801C4F204010A688C
:20A6600010430860FFE702B07047000082B0012001908DF803009DF8030001280AD1FFE7E2
:20A68000019848F20C01C4F204010A6822EA0000086008E0019848F20C01C4F204010A6844
:20A6A00010430860FFE702B070470000F0B58FB0DDF850C00E930D920C910B9047F60D0005
:20A6C000C0F201000A9000200990ADF8220007900C984EF6EF61CEF6EE6148434FEAF020F7
:20A6E00042F22221C0F2020188420BD8FFE70C9848F68901C8F68801A0FB0101880BADF813
:20A7000022000CE00C9848F68901C8F68801A0FB0101012000EB9130ADF82200FFE7FFE77B
:20A7200007980C99884240D2FFE70C980799401AC00A0E2804D8FFE70C980799401A02E033
:20A740004FF4F040FFE706900B9848F21C11C1F6FF714968069A00F071F80A98C8B1FFE72E
:20A76000DDF828C048F21C10C1F6FF70D0F804E0069C099DBDF822600B980C990D9A0E9BCD
:20A78000149F049603950294CDF804E00097E047FFE706980B9908440B900698079908443E
:20A7A0000790099801300990BAE70FB0F0BD000080B54FF2BE30C2F20000012101700220BD
:20A7C000FFF7B4FA80BD000080B582B043F21C40C4F205000068C00748B1FFE743F2004062
:20A7E000C4F2050000210022FFF74AF9FFE743F21C40C4F2050000688007002809D5FFE715
:20A8000043F20040C4F2050001210022FFF738F9FFE700204FF4007100F0C6FCB7208DF8D5
:20A8200007000DF10700012100F0EEF900204FF4007100F037FD02B080BD000010B586B031
:20A8400005900491039243F20044C4F20504204600210022FFF714F9204601210022FFF7B5
:20A860000FF900204FF4007100F09EFC0B208DF806009DF817008DF80700BDF816008DF834
:20A8800008000598000A8DF8090005988DF80A00FF208DF80B000DF10600062100F0B4F9D8
:20A8A0000498039900F0E2F800204FF4007100F0F9FC06B010BD0000B0B58AB001254FF452
:20A8C00020300121FFF774FE02AC2046FFF75CFB06954FF40050079000200590089509908D
:20A8E00048F22810C1F6FF7003904CF20000C4F20100049043F20040C4F2050000212246EB
:20A90000FFF72CFA10B1FFE7FFE7FEE740F62400C4F201004FF49671FEF74CFA4FF4805000
:20A92000029000200890042009904CF20000C4F20100039048F21C40C1F6FF70049043F203
:20A940000040C4F2050002AA0121FFF707FA10B1FFE7FFE7FEE740F62800C4F2010040F27E
:20A960002B11FEF727FA2520ADF800000A20ADF802004AF2B170C0F200000190684601F08B
:20A98000B3FEBDF9020008F081F8BDF9020008F06BF9BDF9020008F0FFF843F20040C4F2F7
:20A9A0000500FFF7CFF90AB0B0BD000070B590B00DF12E04204600F09FFC2020ADF834000E
:20A9C000002500204FF48051224600F059FB00204FF40061224600F053FB4FF480660020BF
:20A9E0004FF48061224600F04BFB0220ADF830000120ADF82E0000204FF40071224600F07E
:20AA00003FFB00204FF480512B2200F00BFC00204FF40061282200F005FC00204FF4806141
:20AA2000292200F0FFFB6C46204604F08BF94FF480300121FFF7DAFD04F0C8F80095019590
:20AA4000082002900395049505950695079608954CF20005C4F201052846214604F006F9D5
:20AA60002846012104F09AF810B070BD10B582B00190009148F22811C1F6FF7143F20044A7
:20AA8000C4F205042046FFF701FABDF8002020460021FFF733FA0198FFF7BCF9BDF8002008
:20AAA00020460121FFF72AFA204601210122FEF7E7FF204600210122FEF7E2FF0020FFF7D8
:20AAC00097F90120FFF794F9FFE74FF2BE30C2F20000007810B9FFE730BFF6E74FF2BE3057
:20AAE000C2F200000021017043F20044C4F20504204600210022FEF7C3FF204601210022CE
:20AB0000FEF7BEFF02B010BD48F22C10C1F6FF70002101724FF0FF310160416070470000AC
:20AB200085B04CF20002C4F20102049203900291002001900090FFE70498406903990840DB
:20AB4000029988420BD0FFE7019820B9FFE76FF00700009004E0019801380190ECE7FFE781
:20AB600005B0704780B584B00390FFF72DFE00208DF80800202001900398000300909DF80B
:20AB800003008DF80500BDF802008DF806000098000A8DF8070000988DF8080000F0E0F9CA
:20ABA00000204FF4007100F0FFFA01A8052100F02BF800204FF4007100F074FB00F0D8F803
:20ABC00004B080BD80B582B000F004FA00204FF4007100F0E9FA11208DF807000DF10700C6
:20ABE000012100F011F84C208DF806000DF10600012100F009F800204FF4007100F052FB1B
:20AC000000F0B6F802B080BD80B584B00390029100200190FFE701980299884214D2FFE7B7
:20AC200020202021FFF77CFF03980199405C04F073FA80208021FFF773FF04F079F8FFE7FC
:20AC4000019801300190E6E704B080BD80B586B0059002200490039101200290002001902D
:20AC6000FFE701980499884214D2FFE720202021FFF756FF05980199405C04F04DFA8020A8
:20AC80008021FFF74DFF04F053F8FFE7019801300190E6E700200090FFE7009802998842F1
:20ACA00015D2FFE720202021FFF73AFFFF2004F033FA80208021FFF733FF04F039F80399AD
:20ACC000009A8854FFE7009801300090E5E706B080BD000010B582B001900091019943F218
:20ACE0000044C4F205042046FFF7D0F8BDF8002020460021FFF702F948F21C40C1F6FF7024
:20AD0000FFF788F8BDF8002020460121FFF7F6F8204601210122FEF7B3FE20460021012281
:20AD2000FEF7AEFE0020FFF763F80120FFF760F8FFE74FF2BE30C2F20000007810B9FFE7A2
:20AD400030BFF6E74FF2BE30C2F200000021017043F20044C4F20504204600210022FEF7DC
:20AD60008FFE204601210022FEF78AFE02B010BD80B582B000208DF80700FFE743F21C4016
:20AD8000C4F205000068C00748B1FFE743F20040C4F2050000210022FEF772FEFFE743F2F7
:20ADA0001C40C4F2050000688007002809D5FFE743F20040C4F2050001210022FEF760FEDA
:20ADC000FFE700204FF4007100F0EEF905208DF80500FF208DF806000DF105000DF1070180
:20ADE000FFF734FF00204FF4007100F05BFAFFE79DF80700C0070028C0D1FFE702B080BD3A
:20AE000080B58AB009900891079200200690FFE706980799884254D2FFE79DF824000590FA
:20AE20000598C0F58070049007980699401A0499884204D2FFE707980699401A01E004986C
:20AE4000FFE703900398B0F5807F03D9FFE74FF4807001E00398FFE7039000F081F80020C7
:20AE60004FF4007100F0A0F902208DF807009DF827008DF80800BDF826008DF80900099894
:20AE8000000A8DF80A0009988DF80B000DF107000521FFF7B9FE0898069908440399FFF7F3
:20AEA00019FF00204FF4007100F0FCF9FFF760FF039806990844069003980999084409902E
:20AEC000A6E70AB080BD000080B586B00590049103920598039908440138029048F22C10FE
:20AEE000C1F6FF70007AC007C0B1FFE7059848F22C11C1F6FF71096888420FD3FFE70298BC
:20AF000048F22C11C1F6FF714968884206D8FFE705980499039AFFF773FF1EE0059800F08A
:20AF20000DFA0190029800F009FA00900098FFF719FE0198000348F22C11C1F6FF71086015
:20AF40000098000300F6FF7048600120087205980499039AFFF754FFFFE706B080BD0000B5
:20AF600080B582B043F21C40C4F205000068C00748B1FFE743F20040C4F20500002100229D
:20AF8000FEF77EFDFFE743F21C40C4F2050000688007002809D5FFE743F20040C4F2050004
:20AFA00001210022FEF76CFDFFE700204FF4007100F0FAF806208DF807000DF1070001217A
:20AFC000FFF722FE00204FF4007100F06BF902B080BD000080B582B043F21C40C4F2050091
:20AFE0000068C00748B1FFE743F20040C4F2050000210022FEF744FDFFE743F21C40C4F26D
:20B00000050000688007002809D5FFE743F20040C4F2050001210022FEF732FDFFE70020B2
:20B020004FF4007100F0C0F850208DF807000DF107000121FFF7E8FD00204FF4007100F0F2
:20B0400031F902B080BD000010B586B00DF10604204600F051F90020ADF80C00ADF80800B6
:20B060004020ADF8100000200821224600F008F800204FF40041224600F002F806B010BDA1
:20B0800086B08DF81700ADF81410049200200190049820B9FFE76FF0020001905CE0002025
:20B0A0008DF80F00FFE79DF80F000F2852D8FFE7BDF81400C007E0B3FFE704980188428833
:20B0C000114382881143C28811434289114382891143C289114300890843ADF80C0045F247
:20B0E0007720ADF80A000498008ABDF80C100843ADF80C00BDF80A0040F40040ADF80A0035
:20B100009DF8170080019DF80F1000EB810043F60041C4F205010844009000980088BDF8FB
:20B120000A108843BDF80C201140084400990880FFE7BDF814004008ADF81400BDF8140012
:20B1400008B9FFE707E0FFE79DF80F0001308DF80F00A8E7FFE7FFE706B0704743F6FC30E5
:20B16000C4F205004FF425410180704743F6FC30C4F205004AF201510180704781B08DF897
:20B180000300ADF800109DF80300000143F60001C4F20501085ABDF80010084080B200289F
:20B1A00018BF012001B0704782B08DF80700ADF804109DF8070043F60A01C4F2050101EB30
:20B1C00000100090BDF8040000990A881043088002B0704781B08DF8030000208DF8020047
:20B1E0009DF8020001280CD1FFE79DF8030000F01F0043F6F431C4F205010A88104308809E
:20B200000DE09DF803004FF6E07161EA000043F6F431C4F205010A8810400880FFE701B0AD
:20B220007047000083B08DF80B00ADF80810ADF8062000208DF80500FFE79DF805000F28AB
:20B240002CD8FFE7BDF80800C007B0B1FFE79DF80B0080019DF8051000EB810043F6024186
:20B26000C4F205010844009000980088BDF8061061F3050000990880FFE7BDF808004008E6
:20B28000ADF80800BDF8080008B9FFE707E0FFE79DF8050001308DF80500CEE7FFE703B02D
:20B2A0007047000082B08DF80700ADF804109DF8070043F60801C4F2050101EB001000903A
:20B2C000BDF8040000990A881043088002B0704781B04FF44040ADF8020043F6F830C4F294
:20B2E000050001886FF39F31BDF8022002F440421144018001B0704782B00190002000908E
:20B30000019820B9FFE76FF00200009013E0019800210180019841800198C1800198018266
:20B320000198018101984181019881810198C18101988180FFE702B07047000081B0009077
:20B340000098000B01B0704710B588B00820ADF81E00BDF81E0044F25011C2F2010108448E
:20B3600006904AF21C40C1F6FF704FF4CB71FCF7E0FF069844F26A71C2F2010109880CF036
:20B380002FFC05900020ADF81200FFE7BDF812000599884280F26082FFE7BDF81200C0EB55
:20B3A000C0004AF21C41C1F6FF7101EB400006300390BDF81200C0EBC00011F81000013894
:20B3C0001C2800F24182DFE810F01D0054003F023F02B500C700D900EB00FD000F0121014B
:20B3E00033014501570169017B018D019F01B101C301D501E7013F02F90104020F021B02C4
:20B400002702330203980078A8B9FFE74FF2DD34C2F20004012020701F2003F013FB002059
:20B4200002F046FB207800F0010004F079FF002007F022FD1CE04FF2DD34C2F20004002088
:20B44000207048F29031C1F6FF7181F88300012002F02EFB207800F0010004F061FF20788D
:20B4600000F0010007F024F8012007F005FDFFE7EBE10398007888B9FFE74FF2DF34C2F2BA
:20B48000000401202070207800F0010004F048FF207800F0010007F00BF84AE00398007873
:20B4A000012817D1FFE748F25010C1F6FF700021417248F29030C1F6FF70012180F88110B6
:20B4C000082000210DF00EFC0020002100220EF081FC2DE003980078022818D1FFE748F2EB
:20B4E0005010C1F6FF700121417248F29030C1F6FF70002180F88110122008F09FFB07F0EC
:20B50000F5FC0020002100220EF064FC0FE00398007803280AD1FFE748F25010C1F6FF70CB
:20B5200002214172132008F089FBFFE7FFE7FFE7FFE78AE1039807F00FFD00EE100AB8EE37
:20B54000400A9FEDDB1A80EE010A48F29C00C1F6FF7080ED020A78E1039807F0FDFC00EE60
:20B56000100AB8EE400A9FEDD21A80EE010A48F29C00C1F6FF7080ED030A66E1039807F081
:20B58000EBFC00EE100AB8EE400A9FEDC91A80EE010A48F29C00C1F6FF7080ED000A54E13C
:20B5A000039807F0D9FC00EE100AB8EE400A9FEDC01A80EE010A48F29C00C1F6FF7080EDE4
:20B5C000060A42E1039807F0C7FC00EE100AB8EE400A9FEDB71A80EE010A48F29C00C1F688
:20B5E000FF7080ED070A30E1039807F0B5FC00EE100AB8EE400A9FEDAE1A80EE010A48F20B
:20B600009C00C1F6FF7080ED040A1EE1039807F0A3FC00EE100AB8EE400A9FEDA51A80EE0C
:20B62000010A48F29C00C1F6FF7080ED0A0A0CE1039807F091FC00EE100AB8EE400A9FEDF2
:20B640009C1A80EE010A48F29C00C1F6FF7080ED0B0AFAE0039807F07FFC00EE100AB8EEA8
:20B66000400A9FED931A80EE010A48F29C00C1F6FF7080ED080AE8E0039807F06DFC00EEA2
:20B68000100AB8EE400A9FED8A1A80EE010A48F29C00C1F6FF7080ED0E0AD6E0039807F02E
:20B6A0005BFC00EE100AB8EE400A9FED811A80EE010A48F29C00C1F6FF7080ED0F0AC4E075
:20B6C000039807F049FC00EE100AB8EE400A9FED781A80EE010A48F29C00C1F6FF7080ED9B
:20B6E0000C0AB2E0039807F037FC00EE100AB8EE400A9FED6F1A80EE010A48F29C00C1F6CA
:20B70000FF7080ED120AA0E0039807F025FC00EE100AB8EE400A9FED661A80EE010A48F247
:20B720009C00C1F6FF7080ED130A8EE0039807F013FC00EE100AB8EE400A9FED5D1A80EE45
:20B74000010A48F29C00C1F6FF7080ED100A7CE0039807F001FC00EE100AB8EE400A9FEDEC
:20B76000541A80EE010A48F29C00C1F6FF7080ED160A6AE0039807F0EFFB00EE100AB8EEE5
:20B78000400A9FED4B1A80EE010A48F29C00C1F6FF7080ED170A58E0039807F0DDFB00EEDB
:20B7A000100AB8EE400A9FED421A80EE010A48F29C00C1F6FF7080ED140A46E0039800785E
:20B7C000002818BF012048F29C01C1F6FF7108713BE003980078002818BF012048F29C01AD
:20B7E000C1F6FF71087530E003980078002818BF012048F29C01C1F6FF7181F8240024E0C3
:20B8000003980078002818BF012048F29C01C1F6FF7181F8340018E003980078002818BF40
:20B82000012048F29C01C1F6FF7181F844000CE003980078002818BF012048F29C01C1F67F
:20B84000FF7181F8540000E0FFE7FFE7BDF812000130ADF8120099E50AF024FF55208DF8BB
:20B860000300AA208DF8040000208DF8050044F25171C2F2010109788DF8061006218DF852
:20B8800007108DF808008DF809008DF80A008DF80B000DF103042046082107F06BFC8DF8E0
:20B8A0000B002046092107F0C3F808B010BD00BF0000C842B0B584B055208DF80600AA208A
:20B8C0008DF8070000208DF8080044F25171C2F2010109788DF809108DF80A008DF80B0043
:20B8E0008DF80C0001218DF80D104AF2B255C1F6FF7529788DF80E108DF80F000DF10604A5
:20B900002046092107F036FC8DF80F0020460A2107F08EF8287838B9FFE74AF2B250C1F660
:20B92000FF7001210170FFE704B0B0BD10B584B055208DF80700AA208DF8080000208DF808
:20B94000090044F25171C2F2010109788DF80A1002218DF80B108DF80C008DF80D008DF8A5
:20B960000E008DF80F000DF107042046082107F001FC8DF80F002046092107F059F804B079
:20B9800010BD0000D0B502AF84B04FF60910C0F2010047F80C0C57F80C0CFCF7E1FC27F8B2
:20B9A0000E0C37F80E0C00F1090147F814DC103020F00700ADEB0004A54647F8181C552034
:20B9C0002070AA2060700020A07044F25171C2F201010978E17001212171607117F80D0CE0
:20B9E000A07117F80E0CE07104F1080057F80C1C37F80E2CFCF7E7FD37F80E0C083081B254
:20BA0000204607F0B7FB37F80E1C2144087237F80E0C093081B2204607F00AF857F814DC8C
:20BA2000A7F10804A546D0BD80B582B044F25010C2F2010008300190019800788DF80300D6
:20BA4000142008F0FBF89DF803003C281DDBFFE74FF4FC6004F054F94FF41670FDF7B4FF9D
:20BA600003F0C6FB4FF41670FDF7AEFF03F0C0FB4FF41670FDF7A8FF03F0BAFB4FF4167025
:20BA8000FDF7A2FF03F0B4FB1CE04FF4784004F037F94FF41670FDF797FF03F0A9FB4FF427
:20BAA0001670FDF791FF03F0A3FB4FF41670FDF78BFF03F09DFB4FF41670FDF785FF03F0E5
:20BAC00097FBFFE7002008F0B9F802B080BD000080B582B044F25010C2F2010000798DF886
:20BAE00007009DF80700222846D8DFE800F01215181B45451E45212445454527452A454509
:20BB000045452D30454545453C3F4245454533363900FFF7CFFE30E0FFF734FF2DE0FFF7FD
:20BB200005FF2AE000F0B0FC27E0FFF70DFC24E000F026F821E00DF021FE1EE0FFF774FFBF
:20BB40001BE00DF04BFE18E009F0DCFE15E00AF0FFF812E00BF028F80FE00AF0AFFE0CE064
:20BB60000AF0AEFF09E00AF045FD06E00AF00AF903E00AF0CFFC00E0FFE702B080BD0000B9
:20BB8000D0B502AF88B0002427F80E4C4FF2DD30C2F200000078012121EA000007F80F0CD9
:20BBA000A7F10F0301200121012209F003FA07F8104C48F25010C1F6FF70407A20B9FFE7EB
:20BBC000012007F8100C19E048F25010C1F6FF70407A012804D1FFE7022007F8100C0CE0A9
:20BBE00048F25010C1F6FF70407A022804D1FFE7032007F8100CFFE7FFE7FFE7A7F110034B
:20BC000002200421012209F0D5F948F29420C1F6FF700089A7F10C0421460DF037F80320F8
:20BC20002146042209F070F940B1FFE7A7F10C0303200221042209F0BDF9FFE748F29420A8
:20BC4000C1F6FF7090ED1C0A90ED1D1AB4EE410AF1EE10FA0BDDFFE748F29420C1F6FF70AF
:20BC600090ED1C0A0CF0C0FD07ED050A0AE048F29420C1F6FF7090ED1D0A0CF0B5FD07ED21
:20BC8000050AFFE717ED050ABCEEC00A10EE100AA7F10C0421460DF011F80420214604224A
:20BCA00009F032F940B1FFE7A7F10C0304200221042209F07FF9FFE748F29420C1F6FF700A
:20BCC00090ED060A9FEDD51A20EE010ABCEEC00A10EE100AA7F10C0421460CF0EFFF052099
:20BCE0002146042209F010F940B1FFE7A7F10C0305200221042209F05DF9FFE748F29420A6
:20BD0000C1F6FF7090ED070A9FEDC41A20EE010ABCEEC00A10EE100AA7F10C0421460CF055
:20BD2000CDFF06202146042209F0EEF840B1FFE7A7F10C0306200221042209F03BF9FFE7A5
:20BD400048F29420C1F6FF7090ED040A9FEDB31A20EE010ABCEEC00A10EE100AA7F10C049E
:20BD600021460CF0ABFF07202146042209F0CCF840B1FFE7A7F10C0307200221042209F05E
:20BD800019F9FFE748F29420C1F6FF7090ED0A0A9FEDA21A20EE010ABCEEC00A10EE100A19
:20BDA000A7F10C0421460CF089FF08202146042209F0AAF840B1FFE7A7F10C0308200221D7
